:0300000002020BEE
:0100030032CA
:03000B00020118D7
:0100130032BA
:01001B0032B2
:0100230032AA
:03002B000201814E
:10002E00C00078B10000D8FCD00022C000C0017919
:10003E002D78A6D8FED9FADAF6D001D00022D2B3A6
:10004E0012002EC2B322A2E792B7A2E692B6A2E5A2
:10005E0092B5A2E492B412004C12002EA2E392B713
:10006E00A2E292B6A2E192B5A2E092B412004C22A4
:10007E00D2B2020054C2B2020054C2B374331200A0
:10008E008374331200837432120083742812008337
:10009E00740C1200837401120083C0027A021200E3
:1000AE0039D00222E493600612007EA380F6224429
:1000BE00404480020083C0E0E8C4540F4430120074
:1000CE007EE8540F443012007ED0E02254696D65F4
:1000DE00202078783A78783A78782000416C6172EE
:1000EE006D2078783A787820006F6E20006F666603
:1000FE0000E58954F04401F589758CEA758AE87536
:10010E00F4EA75F2E8D2A9D28C22B2913275C80007
:10011E0075CD5375CC3475CB5375CA34E4F530F5C3
:10012E0031D2ADD2CA22C0E0740C141200BDD0E0A0
:10013E0030040CC0E0745012007ED0E0C20422C025
:10014E00E0744112007ED0E0D204223003D8C0E029
:10015E007410141200BFD0E030010CC0E0745012C5
:10016E00007ED0E0C20122C0E0744112007ED0E0D9
:10017E00D20122C2CFB290C0E0C0D00530E53070BF
:10018E00020531E530B4F430E531B4012BD200B2C2
:10019E008CE4F530F5311201CBB4601CE4F532126B
:1001AE0001D3E533B46011E4F5331201EFE534B455
:1001BE001306753401120159D0D0D0E032E5322445
:1001CE0001D4F53222300211E5352401D4F535B4CF
:1001DE0060067535001201EF22E5332401D4F533A4
:1001EE0022300211E5362401D4F536B413067536E5
:1001FE000112015922E5342401D4F5342275817F90
:10020E001200FF12011B75E60075E700D2C5D2AFD2
:10021E00120088C0E07401141200BFD0E0C083C089
:10022E0082C0E09000DA1200B2D0E0D082D083C05B
:10023E00E07401141200BDD0E0C083C082C0E09013
:10024E0000EA1200B2D0E0D082D083C0E074101465
:10025E001200BFD0E0C0E0744112007ED0E0C0E0DA
:10026E00740C141200BDD0E0C0E0744112007ED0B8
:10027E00E0D200D201D203D204C202C2057532000E
:10028E007533007534007535007536003002433015
:10029E000520B205C0E0740E141200BDD0E0C0837C
:1002AE00C082C0E09000FB1200B2D0E0D082D083BA
:1002BE008052B205C0E0740E141200BDD0E0C083AF
:1002CE00C082C0E09000F71200B2D0E0D082D0839E
:1002DE00803220802FC0027A32120039D002208064
:1002EE00233080FD2002A51201CBB4606A75320066
:1002FE001201D3B460611201EFB4135B75340112B5
:10030E0001598053208625C0027A32120039D0025C
:10031E002086193086FD1201EFE534B41339753499
:10032E000112015980313000A9020365208330C0CB
:10033E00027A32120039D0022083243083FD12015A
:10034E00D3E533B460117533001201EFB4130875A1
:10035E0034011201598000C20012039C0202E020F7
:10036E00C514C0027A32120039D00220C50830C539
:10037E00FD12015980E120A1ADC0027A321200397E
:10038E00D00220A1A130A1FDB202B20380C9C0E00B
:10039E00740D141200BFD0E0C000A8321200C4D0F9
:1003AE0000C0E0740A141200BFD0E0C000A83312DF
:1003BE0000C4D000C0E07407141200BFD0E0C0002B
:1003CE00A8341200C4D000C0E07407141200BDD0CF
:1003DE00E0C000A8361200C4D000C0E0740A1412A7
:0E03EE0000BDD0E0C000A8351200C4D000222F
:00000001FF
