:0300000002023ABF
:0100030032CA
:03000B00020118D7
:0100130032BA
:01001B0032B2
:0100230032AA
:03002B000201814E
:10002E00C00078B10000D8FCD00022C000C0017919
:10003E002D78A6D8FED9FADAF6D001D00022D2B3A6
:10004E0012002EC2B322A2E792B7A2E692B6A2E5A2
:10005E0092B5A2E492B412004C12002EA2E392B713
:10006E00A2E292B6A2E192B5A2E092B412004C22A4
:10007E00D2B2020054C2B2020054C2B374331200A0
:10008E008374331200837432120083742812008337
:10009E00740C1200837401120083C0027A021200E3
:1000AE0039D00222E493600612007EA380F6224429
:1000BE00404480020083C0E0E8C4540F4430120074
:1000CE007EE8540F443012007ED0E02254696D65F4
:1000DE00202078783A78783A78782000416C6172EE
:1000EE006D2078783A787820006F6E20006F666603
:1000FE0000E58954F04401F589758CEA758AE87536
:10010E00F4EA75F2E8C2A9D28C22B2913275C80017
:10011E0075CD5375CC3475CB5375CA34E4F530F5C3
:10012E0031D2ADD2CA22C0E0740C141200BDD0E0A0
:10013E0030040CC0E0745012007ED0E0C20422C025
:10014E00E0744112007ED0E0D204223003D8C0E029
:10015E007410141200BFD0E030010CC0E0745012C5
:10016E00007ED0E0C20122C0E0744112007ED0E0D9
:10017E00D20122C2CFB290C0E0C0D00530E53070BF
:10018E00020531E530B4F42DE531B40128D200B2C8
:10019E008CE4F530F5311201F1B46019E4F5321248
:1001AE0001F9E533B4600EE4F533120215E534B40B
:1001BE001303753401300526E533B53521E534B525
:1001CE00361C20010930010FD206D2A9801030044E
:1001DE000DD206D2A98007200404D206D2A9D0D00F
:1001EE00D0E032E5322401D4F53222300211E53569
:1001FE002401D4F535B4600675350012021522E5DA
:10020E00332401D4F53322300214E5362401D4F51B
:10021E0036B41203120159B4130375360122E534B4
:10022E002401D4F534B412031201592275817F12C0
:10023E0000FF12011B75E60075E700D2C5D2AF12A2
:10024E000088C0E07401141200BFD0E0C083C082E9
:10025E00C0E09000DA1200B2D0E0D082D083C0E0CD
:10026E007401141200BDD0E0C083C082C0E09000C3
:10027E00EA1200B2D0E0D082D083C0E07410141223
:10028E0000BFD0E0C0E0744112007ED0E0C0E07448
:10029E000C141200BDD0E0C0E0744112007ED0E01C
:1002AE00C0E0740E141200BDD0E0C083C082C0E066
:1002BE009000FB1200B2D0E0D082D083D200D201E7
:1002CE00D203D204C202C205C206753200753300D3
:1002DE0075340175350075360130024C300523B288
:1002EE0005C0E0740E141200BDD0E0C083C082C001
:1002FE00E09000FB1200B2D0E0D082D08320062224
:10030E008058B205C0E0740E141200BDD0E0C08358
:10031E00C082C0E09000F71200B2D0E0D082D0834D
:10032E008038C2A9C206803220802FC0027A3212D3
:10033E000039D0022080233080FD20029C1201F172
:10034E00B460677532001201F9B4605E120215B422
:10035E0013587534011201598050208622C0027A3A
:10036E0032120039D0022086163086FD120215E5B3
:10037E0034B4133675340180313000AC0203B8202A
:10038E008330C0027A32120039D0022083243083A7
:10039E00FD1201F9E533B46011753300120215B484
:1003AE0013087534011201598000C2001203EF02C6
:1003BE00033620C514C0027A32120039D00220C58D
:1003CE000830C5FD12015980E120A1ADC0027A327C
:1003DE00120039D00220A1A130A1FDB202B20380D9
:1003EE00C9C0E0740D141200BFD0E0C000A83212D4
:1003FE0000C4D000C0E0740A141200BFD0E0C000E8
:10040E00A8331200C4D000C0E07407141200BFD08D
:10041E00E0C000A8341200C4D000C0E0740714126B
:10042E0000BDD0E0C000A8361200C4D000C0E074F9
:10043E000A141200BDD0E0C000A8351200C4D000CE
:01044E00228B
:00000001FF
