:0300000002020AEF
:0100030032CA
:03000B00020117D8
:0100130032BA
:01001B0032B2
:0100230032AA
:03002B000201804F
:10002E00C00078B10000D8FCD00022C000C0017919
:10003E002D78A6D8FED9FADAF6D001D00022D2B3A6
:10004E0012002EC2B322A2E792B7A2E692B6A2E5A2
:10005E0092B5A2E492B412004C12002EA2E392B713
:10006E00A2E292B6A2E192B5A2E092B412004C22A4
:10007E00D2B2020054C2B2020054C2B374331200A0
:10008E008374331200837432120083742812008337
:10009E00740C1200837401120083C0027A021200E3
:1000AE0039D00222E493600612007EA380F6224429
:1000BE00404480020083C0E0E8C4540F4430120074
:1000CE007EE8540F443012007ED0E02254696D65F4
:1000DE00202078783A78783A78782000416C6172EE
:1000EE006D2078783A787820006F6E006F66660023
:1000FE00E58954F04401F589758CEA758AE875F442
:10010E00EA75F2E8D2A9D28C22B2913275C8007586
:10011E00CD5375CC3475CB5375CA34E4F530F53107
:10012E00D2ADD2CA22C0E0740C141200BDD0E030A1
:10013E00040CC0E0745012007ED0E0C20422C0E075
:10014E00744112007ED0E0D204223003D8C0E07495
:10015E0010141200BFD0E030010CC0E07450120039
:10016E007ED0E0C20122C0E0744112007ED0E0D207
:10017E000122C2CFB290C0E0C0D00530E53070028F
:10018E000531E530B4F430E531B4012BD200B28C38
:10019E00E4F530F5311201CAB4601CE4F5321201F7
:1001AE00D2E533B46011E4F5331201EEE534B41345
:1001BE0006753401120158D0D0D0E032E532240158
:1001CE00D4F53222300211E5352401D4F535B46070
:1001DE00067535001201EE22E5332401D4F53322E3
:1001EE00300211E5362401D4F536B4130675360106
:1001FE0012015822E5342401D4F5342275817F1280
:10020E0000FE12011A75E60075E700D2C5D2AF12D4
:10021E000088C0E07401141200BFD0E0C083C08219
:10022E00C0E09000DA1200B2D0E0D082D083C0E0FD
:10023E007401141200BDD0E0C083C082C0E09000F3
:10024E00EA1200B2D0E0D082D083C0E07410141253
:10025E0000BFD0E0C0E0744112007ED0E0C0E07478
:10026E000C141200BDD0E0C0E0744112007ED0E04C
:10027E00D200D201D203D204D202C202753200756C
:10028E00330075340075350075360020802CC002A1
:10029E007A32120039D0022080203080FD1201CA3D
:1002AE00B460677532001201D2B4605E1201EEB412
:1002BE001358753401120158805020861FC0027ADF
:1002CE0032120039D0022086133086FD1201EEE57F
:1002DE0034B41336753401120158802E208333C086
:1002EE00027A32120039D0022083273083FD1201A8
:1002FE00D2E533B460147533001201EEB4130B75EE
:10030E0034011201588003300081C20012035102E1
:10031E00029920C514C0027A32120039D00220C5CB
:10032E000830C5FD12015880E120A1DBC0027A32EF
:10033E00120039D00220A1CF30A1FDB202B203B219
:10034E00AD80C7C0E0740D141200BFD0E0C000A88D
:10035E00321200C4D000C0E0740A141200BFD0E004
:10036E00C000A8331200C4D000C0E07407141200FD
:10037E00BFD0E0C000A8341200C4D000C0E07407A3
:10038E00141200BDD0E0C000A8361200C4D000C0C8
:10039E00E0740A141200BDD0E0C000A8351200C4EB
:0303AE00D000225A
:00000001FF
