:03000000020234C5
:0100030032CA
:03000B00020118D7
:0100130032BA
:01001B0032B2
:0100230032AA
:03002B000201814E
:10002E00C00078B10000D8FCD00022C000C0017919
:10003E002D78A6D8FED9FADAF6D001D00022D2B3A6
:10004E0012002EC2B322A2E792B7A2E692B6A2E5A2
:10005E0092B5A2E492B412004C12002EA2E392B713
:10006E00A2E292B6A2E192B5A2E092B412004C22A4
:10007E00D2B2020054C2B2020054C2B374331200A0
:10008E008374331200837432120083742812008337
:10009E00740C1200837401120083C0027A021200E3
:1000AE0039D00222E493600612007EA380F6224429
:1000BE00404480020083C0E0E8C4540F4430120074
:1000CE007EE8540F443012007ED0E02254696D65F4
:1000DE00202078783A78783A78782000416C6172EE
:1000EE006D2078783A787820006F6E20006F666603
:1000FE0000E58954F04401F589758CEA758AE87536
:10010E00F4EA75F2E8C2A9D28C22B2913275C80017
:10011E0075CD5375CC3475CB5375CA34E4F530F5C3
:10012E0031D2ADD2CA22C0E0740C141200BDD0E0A0
:10013E0030040CC0E0745012007ED0E0C20422C025
:10014E00E0744112007ED0E0D204223003D8C0E029
:10015E007410141200BFD0E030010CC0E0745012C5
:10016E00007ED0E0C20122C0E0744112007ED0E0D9
:10017E00D20122C2CFB290C0E0C0D00530E53070BF
:10018E00020531E530B4F430E531B4012BD200B2C2
:10019E008CE4F530F5311201F4B4601CE4F5321242
:1001AE0001FCE533B46011E4F533120218E534B402
:1001BE001306753401120159300526E533B5352184
:1001CE00E534B5361C20010930010FD206D2A980C4
:1001DE001030040DD206D2A98007200404D206D214
:1001EE00A9D0D0D0E032E5322401D4F5322230024B
:1001FE0011E5352401D4F535B460067535001202CB
:10020E001822E5332401D4F53322300211E53624C9
:10021E0001D4F536B4130675360112015922E534B0
:10022E002401D4F5342275817F1200FF12011B7553
:10023E00E60075E700D2C5D2AF120088C0E07401A7
:10024E00141200BFD0E0C083C082C0E09000DA126A
:10025E0000B2D0E0D082D083C0E07401141200BD91
:10026E00D0E0C083C082C0E09000EA1200B2D0E0BD
:10027E00D082D083C0E07410141200BFD0E0C0E072
:10028E00744112007ED0E0C0E0740C141200BDD098
:10029E00E0C0E0744112007ED0E0C0E0740E141293
:1002AE0000BDD0E0C083C082C0E09000FB1200B25F
:1002BE00D0E0D082D083D200D201D203D204C202C7
:1002CE00C205C206753200753300753401753500EE
:1002DE0075360130024C300523B205C0E0740E14A1
:1002EE001200BDD0E0C083C082C0E09000FB1200BF
:1002FE00B2D0E0D082D0832006228058B205C0E072
:10030E00740E141200BDD0E0C083C082C0E0900015
:10031E00F71200B2D0E0D082D0838038C2A9C206D4
:10032E00803220802FC0027A32120039D002208013
:10033E00233080FD20029C1201F4B4606A753200F5
:10034E001201FCB46061120218B4135B7534011211
:10035E0001598053208625C0027A32120039D0020C
:10036E002086193086FD120218E534B4133975341F
:10037E000112015980313000A90203B5208330C02B
:10038E00027A32120039D0022083243083FD12010A
:10039E00FCE533B46011753300120218B4130875FE
:1003AE0034011201598000C2001203EC0203302006
:1003BE00C514C0027A32120039D00220C50830C5E9
:1003CE00FD12015980E120A1ADC0027A321200392E
:1003DE00D00220A1A130A1FDB202B20380C9C0E0BB
:1003EE00740D141200BFD0E0C000A8321200C4D0A9
:1003FE0000C0E0740A141200BFD0E0C000A833128F
:10040E0000C4D000C0E07407141200BFD0E0C000DA
:10041E00A8341200C4D000C0E07407141200BDD07E
:10042E00E0C000A8361200C4D000C0E0740A141256
:0E043E0000BDD0E0C000A8351200C4D00022DE
:00000001FF
