:03000000020217E2
:0100030032CA
:03000B00020118D7
:0100130032BA
:01001B0032B2
:0100230032AA
:03002B000201814E
:10002E00C00078B10000D8FCD00022C000C0017919
:10003E002D78A6D8FED9FADAF6D001D00022D2B3A6
:10004E0012002EC2B322A2E792B7A2E692B6A2E5A2
:10005E0092B5A2E492B412004C12002EA2E392B713
:10006E00A2E292B6A2E192B5A2E092B412004C22A4
:10007E00D2B2020054C2B2020054C2B374331200A0
:10008E008374331200837432120083742812008337
:10009E00740C1200837401120083C0027A021200E3
:1000AE0039D00222E493600612007EA380F6224429
:1000BE00404480020083C0E0E8C4540F4430120074
:1000CE007EE8540F443012007ED0E02254696D65F4
:1000DE00202078783A78783A78782000416C6172EE
:1000EE006D2078783A787820006F6E20006F666603
:1000FE0000E58954F04401F589758CEA758AE87536
:10010E00F4EA75F2E8C2A9D28C22B2913275C80017
:10011E0075CD5375CC3475CB5375CA34E4F530F5C3
:10012E0031D2ADD2CA22C0E0740C141200BDD0E0A0
:10013E0030040CC0E0745012007ED0E0C20422C025
:10014E00E0744112007ED0E0D204223003D8C0E029
:10015E007410141200BFD0E030010CC0E0745012C5
:10016E00007ED0E0C20122C0E0744112007ED0E0D9
:10017E00D20122C2CFB290C0E0C0D00530E53070BF
:10018E00020531E530B4F430E531B4012BD200B2C2
:10019E008CE4F530F5311201D7B4601CE4F532125F
:1001AE0001DFE533B46011E4F5331201FBE534B43D
:1001BE001306753401120159300509E533B53504BE
:1001CE00D206D2A9D0D0D0E032E5322401D4F53215
:1001DE0022300211E5352401D4F535B460067535AB
:1001EE00001201FB22E5332401D4F5332230021133
:1001FE00E5362401D4F536B41306753601120159CD
:10020E0022E5342401D4F5342275817F1200FF12C9
:10021E00011B75E60075E700D2C5D2AF120088C08B
:10022E00E07401141200BFD0E0C083C082C0E09021
:10023E0000DA1200B2D0E0D082D083C0E074011494
:10024E001200BDD0E0C083C082C0E09000EA120070
:10025E00B2D0E0D082D083C0E07410141200BFD0B0
:10026E00E0C0E0744112007ED0E0C0E0740C1412C5
:10027E0000BDD0E0C0E0744112007ED0E0C0E0745A
:10028E000E141200BDD0E0C083C082C0E09000FB0F
:10029E001200B2D0E0D082D083D200D201D203D2EB
:1002AE0004C202C205C206753200753300753400F1
:1002BE0075350075360030024C300523B205C0E0AE
:1002CE00740E141200BDD0E0C083C082C0E0900056
:1002DE00FB1200B2D0E0D082D0832006228058B22A
:1002EE0005C0E0740E141200BDD0E0C083C082C001
:1002FE00E09000F71200B2D0E0D082D0838038C2F6
:10030E00A9C206803220802FC0027A32120039D064
:10031E00022080233080FD20029C1201D7B4606A37
:10032E007532001201DFB460611201FBB4135B750C
:10033E0034011201598053208625C0027A321200F0
:10034E0039D0022086193086FD1201FBE534B41334
:10035E003975340112015980313000A902039820F9
:10036E008330C0027A32120039D0022083243083C7
:10037E00FD1201DFE533B460117533001201FBB4D9
:10038E0013087534011201598000C2001203CF0206
:10039E00031320C514C0027A32120039D00220C5D0
:1003AE000830C5FD12015980E120A1ADC0027A329C
:1003BE00120039D00220A1A130A1FDB202B20380F9
:1003CE00C9C0E0740D141200BFD0E0C000A83212F4
:1003DE0000C4D000C0E0740A141200BFD0E0C00008
:1003EE00A8331200C4D000C0E07407141200BFD0AE
:1003FE00E0C000A8341200C4D000C0E0740714128C
:10040E0000BDD0E0C000A8361200C4D000C0E07419
:10041E000A141200BDD0E0C000A8351200C4D000EE
:01042E0022AB
:00000001FF
