:030000000201BA40
:0100030032CA
:03000B00020111DE
:0100130032BA
:01001B0032B2
:0100230032AA
:03002B0002015C73
:10002E00C00078B10000D8FCD00022C000C0017919
:10003E002D78A6D8FED9FADAF6D001D00022D2B3A6
:10004E0012002EC2B322A2E792B7A2E692B6A2E5A2
:10005E0092B5A2E492B412004C12002EA2E392B713
:10006E00A2E292B6A2E192B5A2E092B412004C22A4
:10007E00D2B2020054C2B2020054C2B374331200A0
:10008E008374331200837432120083742812008337
:10009E00740C1200837401120083C0027A021200E3
:1000AE0039D00222E493600612007EA380F6224429
:1000BE00404480020083C0E0E8C4540F4430120074
:1000CE007EE8540F443012007ED0E02254696D65F4
:1000DE00202078783A78783A78782000416C6172EE
:1000EE006D202078783A78782000E58954F0440124
:1000FE00F589758CEA758AE875F4EA75F2E8D2A985
:10010E00D28C22B2913275C80075CD5375CC347530
:10011E00CB5375CA34E4F530F531D2ADD2CA22C014
:10012E00E07410141200BFD0E030010CC0E0745027
:10013E0012007ED0E0C20122C0E07410141200BF83
:10014E00D0E0C0E0744112007ED0E0D20122C2CFD6
:10015E00B290C0E0C0D00530E53070020531E53018
:10016E00B4F42CE531B40127D200B28CE4F530F5AD
:10017E00311201A2B46018E4F5321201AAB4600F74
:10018E00E4F5331201B2B4130675340112012DD009
:10019E00D0D0E032E5322401D4F53222E533240109
:1001AE00D4F53322E5342401D4F5342275817F123F
:1001BE0000F812011475E60075E700D2AF12008840
:1001CE00C0E07401141200BFD0E0C083C082C0E052
:1001DE009000DA1200B2D0E0D082D083C0E074106A
:1001EE00141200BFD0E0C0E0744112007ED0E0D205
:1001FE0000D20175320075330075340020802CC09A
:10020E00027A32120039D0022080203080FD120195
:10021E00A2B460637532001201AAB4605A1201B220
:10022E00B4135475340112012D804C20861DC0026A
:10023E007A32120039D0022086113086FD1201B2B8
:10024E00B4133475340112012D802C208326C00284
:10025E007A32120039D00220831A3083FD1201AA9D
:10026E00B460147533001201B2B4130B753401125D
:10027E00012D8003300085C200C0E0740D14120001
:10028E00BFD0E0C000A8321200C4D000C0E0740A93
:10029E00141200BFD0E0C000A8331200C4D000C0BA
:1002AE00E07407141200BFD0E0C000A8341200C4DE
:0502BE00D00002020A5D
:00000001FF
